S00C0000416E7A752E737265637A
S11300000C9457000C9474000C9474000C947400B9
S11300100C9474000C9474000C9474000C9474008C
S11300200C9474000C9474000C9474000C9474007C
S11300300C94EF010C9476000C9474000C947400EE
S11300400C9474000C94EB020C9474000C947400E3
S11300500C9474000C9474000C9474000C9474004C
S11300600C9474000C9474000C9474000C9474003C
S11300700C9474000C9474000C9474000C94250378
S11300800C9474000C9474000C9474000C9474001C
S11300900C9474000C9474000C9474000C9474000C
S11300A0BF01C501CB01D101D701DD01E301112459
S11300B01FBECFEFCDBFDFE3DEBF18E2A0E0B8E2A2
S11300C0E0ECF7E002C005900D92AE30B107D9F72D
S11300D02AE2AEE0B8E201C01D92AC33B207E1F708
S11300E00E948C020C94DE030C9400001F920F9269
S11300F00FB60F921124FF920F931F932F933F93E8
S11301004F935F936F937F938F939F93AF93BF931B
S1130110CF93DF93EF93FF9310E057C0C12FCC0F21
S11301208C2F0E943001082F81E08C0F0E94300137
S11301300823C12FC695C695C695D0E0FE01EE5E94
S1130140F74D2081812F8770F82E30E002C035955D
S113015027958A95E2F781E0A9014170552720FF90
S113016080E0452B59F0081799F0E0910E28F091A2
S11301700F28309769F0812F09950AC0081741F0BC
S1130180E0911028F0911128309711F0812F0995F2
S1130190002369F081E090E002C0880F991FFA946F
S11301A0E2F7CE5ED74D9881892B88830DC081E01C
S11301B090E002C0880F991FFA94E2F7CE5ED74D03
S11301C080959881892388831F5F183108F4A6CF0E
S11301D081E08093960AFF91EF91DF91CF91BF91D7
S11301E0AF919F918F917F916F915F914F913F91CB
S11301F02F911F910F91FF900F900FBE0F901F90A2
S113020018950E941301E0E9FAE080E395E78487FA
S1130210958780818360808308950E942A0181E00C
S11302208093950A0895E0E4F4E09FE3918382E0EB
S113023080936204A0E8B4E088E011968C9311974F
S11302409683158216968C93E0E8F6E082818B699A
S113025082830895E0E8F6E08081816080830895D8
S11302608F738093440488E080938504909187067B
S1130270892F807194FD81E00895982F9695969525
S11302809695392F330F330F330F381B395F66239D
S113029081F0892F90E0FC01EA5DF74D508161E027
S11302A070E0032E02C0660F771F0A94E2F7652BF5
S11302B010C0892F90E0FC01EA5DF74D508161E0A8
S11302C070E0032E02C0660F771F0A94E2F7609570
S11302D06523FC01EA5DF74D6083442371F0FC0162
S11302E0E25EF74D608141E050E0032E02C0440F0E
S11302F0551F0A94E2F7462B0FC0FC01E25EF74D4E
S1130300508161E070E0032E02C0660F771F0A94EB
S1130310E2F7462F40954523FC01E25EF74D40830A
S1130320222379F0FC01EA5EF74D608141E050E060
S1130330FA0102C0EE0FFF1F3A95E2F79F01262B48
S11303400FC0FC01EA5EF74D408161E070E0FB0103
S113035002C0EE0FFF1F3A95E2F79F012095242378
S1130360FC01EA5EF74D20830895462F50E04730A4
S1130370510578F5FA01E05BFF4F0C94D80320E0B7
S113038040E061E00E943D01089521E040E060E02A
S11303900E943D01089520E041E061E00E943D019A
S11303A0089520E041E060E00E943D01089521E0CD
S11303B040E061E00E943D01089521E041E060E0F9
S11303C00E943D01089521E041E061E00E943D0169
S11303D0089520E040E060E00E943D0108951F92EE
S11303E00F920FB60F9211242F933F934F938F9335
S11303F09F93EF93FF93F89440911528442319F0A9
S1130400413039F003C026E238E205C026E138E283
S113041002C02EE138E290E00BC08091C30885FF52
S1130420FCCFF901E90FF11D80818093C4089F5F1F
S1130430983098F387E08093860480E002C000003F
S11304408F5F8032E0F3E0E0F4E080E88683858328
S113045080E002C000008F5F8032E0F381E090E032
S1130460042E02C0880F991F0A94E2F78093850432
S1130470423010F44F5F01C040E040931528E0E89B
S1130480FAE08681816086837894FF91EF919F9151
S11304908F914F913F912F910F900FBE0F901F900E
S11304A0189580ED80930104E0E8F4E087E081830F
S11304B08683E0ECF8E080818063808381818068BA
S11304C0818380818160808385E08093000AE0E8F5
S11304D0FAE080E29EE4848795878081856080834A
S11304E00895E0E8FAE08581816085830895883184
S11304F020F4880F8F5E0E94B5010895873120F49F
S1130500880F8E5E0E94B5010895803110F40E9418
S1130510B5010895089508950E94DF020E945F03C3
S11305200E9451020E94010178948AE892E080932B
S11305301028909311288BE892E080930E289093D2
S11305400F2881E00E94A1030E9471020E940D0104
S1130550C0E005C060E08C2F0E947E02CF5FC731EF
S1130560C8F3C0E005C060E08C2F0E948502CF5F15
S1130570C731C8F3C0E00EC063E08C2F0E9477023D
S11305802FE38DE093E0215080409040E1F700C0DC
S11305900000CF5FC83180F3C0E00EC067E08C2F4D
S11305A00E9477022FE38DE093E021508040904039
S11305B0E1F700C00000CF5FC83180F3DBCF88EDE6
S11305C084BF1092610084BFE0E1F1E0808181602A
S11305D08083789408951F920F920FB60F9211247E
S11305E02F938F939F93AF93BF93EF93FF93809138
S11305F00008EDE2F9E2A081B1818C9380819181C0
S11306000196808391838E179F0731F48EE298E2DE
S113061080932D2990932E299FB7F89481E006C0EA
S1130620E1E3F9E280818F5F808380E08111F8CF7C
S11306309FBFFF91EF91BF91AF919F918F912F91A8
S11306400F900FBE0F901F9018951F920F920FB628
S11306500F9211242F938F939F93AF93BF93EF9394
S1130660FF9380914008E1E3FAE2A081B1818C9389
S1130670808191810196808391838E179F0731F445
S113068082E399E28093312A9093322A9FB7F894B7
S113069081E006C0E5E3FAE280818F5F808380E039
S11306A08111F8CF9FBFFF91EF91BF91AF919F91BF
S11306B08F912F910F900FBE0F901F901895E0EA25
S11306C0F4E091E0918382E08283E0E0F4E09183BE
S11306D08283E0E4F8E080E09AE08087918783E019
S11306E08783E0E0F8E023E238E0208731878783DE
S11306F02FB7F89481E00DC082E399E28093312A08
S11307009093322A8093332A9093342A1092352A74
S113071080E08111F1CF2FBF2FB7F89481E00DC095
S11307208EE298E280932D2990932E2980932F298D
S1130730909330291092312980E08111F1CF2FBF9D
S11307400895811107C0E0E4F8E080EC868380E836
S113075085830895E0E0F8E080EC868380E8858373
S113076080E098E28093382A9093392A0895882368
S113077019F0813039F008958091440885FFFCCF49
S1130780609342088091040885FFFCCF60930208BF
S11307900895CF93C82F8A3019F48DE00E94C903BD
S11307A06C2F81E00E94B70380E090E0CF91089520
S11307B0EE0FFF1F0590F491E02D0994F894FFCFFC
S11107C00000000200000000C9030000000059
S9030000FC
