:100000000C9457000C9474000C9474000C947400BD
:100010000C9474000C9474000C9474000C94740090
:100020000C9474000C9474000C9474000C94740080
:100030000C94B9010C9476000C9474000C94740028
:100040000C9474000C949F020C9474000C94740033
:100050000C9474000C9474000C9474000C94740050
:100060000C9474000C9474000C9474000C94740040
:100070000C9474000C9474000C9474000C94D902C9
:100080000C9474000C9474000C9474000C94740020
:100090000C9474000C9474000C9474000C94740010
:1000A00089018F0195019B01A101A701AD011124D7
:1000B0001FBECFEFCDBFDFE3DEBF18E2A0E0B8E2A6
:1000C000E8E2F7E002C005900D92AE30B107D9F733
:1000D0002AE2AEE0B8E201C01D92AD33B207E1F70B
:1000E0000E945E020C9492030C9400001F920F92E7
:1000F0000FB60F9211242F933F934F935F936F93FB
:100100007F938F939F93EF93FF9390E040C0E0E441
:10011000F4E08FE38683958388E080938504E92F5C
:10012000E695E695E6952E2F220F220F220F291B2A
:10013000295F80E002C000008F5F8430E0F380918F
:10014000870684FF10C0F0E041E050E0BA0102C031
:10015000660F771F2A95E2F79B01E25FF74D8081DA
:10016000282B208310C0F0E041E050E0BA0102C02B
:10017000660F771F2A95E2F79B01E25FF74D209506
:1001800080812823208388E0809386049F5F9034B9
:1001900008F4BDCFE0E9FAE0868181608683FF91B3
:1001A000EF919F918F917F916F915F914F913F91CF
:1001B0002F910F900FBE0F901F901895E0E4F4E080
:1001C0009FE3918382E080936204A0E8B4E088E03A
:1001D00011968C9311979683158216968C93E0E96D
:1001E000FAE080E69AEE848795878081816080833B
:1001F000E0E8F6E082818B61828380818160808388
:100200000895E0E9FAE08581816085830895982F5B
:10021000969596959695392F330F330F330F381BDC
:10022000395F662381F0892F90E0FC01E95DF74D8D
:10023000508161E070E0032E02C0660F771F0A94C0
:10024000E2F7652B10C0892F90E0FC01E95DF74DC6
:10025000508161E070E0032E02C0660F771F0A94A0
:10026000E2F760956523FC01E95DF74D6083442367
:1002700071F0FC01E15EF74D608141E050E0032E3A
:1002800002C0440F551F0A94E2F7462B0FC0FC0131
:10029000E15EF74D508161E070E0032E02C0660F11
:1002A000771F0A94E2F7462F40954523FC01E15E53
:1002B000F74D4083222379F0FC01E95EF74D608120
:1002C00041E050E0FA0102C0EE0FFF1F3A95E2F75D
:1002D0009F01262B0FC0FC01E95EF74D408161E0D4
:1002E00070E0FB0102C0EE0FFF1F3A95E2F79F019D
:1002F00020952423FC01E95EF74D20830895462FC5
:1003000050E04730510578F5FA01E05BFF4F0C945F
:100310008C0320E040E061E00E940701089521E0A5
:1003200040E060E00E940701089520E041E061E0C4
:100330000E940701089520E041E060E00E9407016B
:10034000089521E040E061E00E940701089521E066
:1003500041E060E00E940701089521E041E061E092
:100360000E940701089520E040E060E00E9407013C
:1003700008951F920F920FB60F9211242F933F935F
:100380004F938F939F93EF93FF93F8944091162888
:10039000442319F0413039F003C027E238E205C0A8
:1003A00027E138E202C02FE138E290E00BC08091F3
:1003B000C30885FFFCCFF901E90FF11D808180930F
:1003C000C4089F5F983098F387E08093860480E0AC
:1003D00002C000008F5F8032E0F3E0E0F4E080E8EC
:1003E0008683858380E002C000008F5F8032E0F367
:1003F00081E090E0042E02C0880F991F0A94E2F772
:1004000080938504423010F44F5F01C040E0409378
:100410001628E0E8FAE08681816086837894FF916F
:10042000EF919F918F914F913F912F910F900FBE20
:100430000F901F90189580ED80930104E0E8F4E0A0
:1004400087E081838683E0ECF8E0808180638083AD
:1004500081818068818380818160808385E0809351
:10046000000AE0E8FAE080E29EE4848795878081D4
:10047000856080830895E0E8FAE085818160858366
:1004800090E007C08091C30885FFFCCF1092C4089C
:100490009F5F9830B8F380E002C000008F5F803229
:1004A000E0F3E0E0F4E080E8868385830895883116
:1004B00020F4880F8F5E0E947F0108950E949302AE
:1004C0000E9413030E941B020E94DE00789481E0C8
:1004D0000E9455030E943B020E940101C0E00EC031
:1004E00062E08C2F0E9457022FEF81EE94E02150A2
:1004F00080409040E1F700C00000CF5FC83180F33A
:10050000C0E00EC067E08C2F0E9457022FEF81EEF3
:1005100094E0215080409040E1F700C00000CF5FA0
:10052000C83180F3DBCF88ED84BF1092610084BFB7
:10053000E0E1F1E0808181608083789408951F92EA
:100540000F920FB60F9211242F938F939F93AF9317
:10055000BF93EF93FF9380910008EEE2F9E2A08150
:10056000B1818C93808191810196808391838E17D4
:100570009F0731F48FE298E280932E2990932F29E0
:100580009FB7F89481E006C0E2E3F9E280818F5FD3
:10059000808380E08111F8CF9FBFFF91EF91BF91E1
:1005A000AF919F918F912F910F900FBE0F901F9041
:1005B00018951F920F920FB60F9211242F938F93BD
:1005C0009F93AF93BF93EF93FF9380914008E2E333
:1005D000FAE2A081B1818C93808191810196808320
:1005E00091838E179F0731F483E399E28093322A37
:1005F0009093332A9FB7F89481E006C0E6E3FAE2CD
:1006000080818F5F808380E08111F8CF9FBFFF9151
:10061000EF91BF91AF919F918F912F910F900FBE4E
:100620000F901F901895E0EAF4E091E0918382E04A
:100630008283E0E0F4E091838283E0E4F8E080E00C
:100640009AE08087918783E08783E0E0F8E023E207
:1006500038E02087318787832FB7F89481E00DC079
:1006600083E399E28093322A9093332A8093342A49
:100670009093352A1092362A80E08111F1CF2FBF56
:100680002FB7F89481E00DC08FE298E280932E2975
:1006900090932F29809330299093312910923229F9
:1006A00080E08111F1CF2FBF0895811107C0E0E4F0
:1006B000F8E080EC868380E885830895E0E0F8E048
:1006C00080EC868380E8858380E098E28093392AF5
:1006D00090933A2A0895882319F0813039F00895CB
:1006E0008091440885FFFCCF609342088091040804
:1006F00085FFFCCF609302080895CF93C82F8A30FE
:1007000019F48DE00E947D036C2F81E00E946B0341
:1007100080E090E0CF910895EE0FFF1F0590F491D7
:08072000E02D0994F894FFCFCD
:0E07280000000002000000007D030000000041
:00000001FF
