:100000000C9457000C9474000C9474000C947400BD
:100010000C9474000C9474000C9474000C94740090
:100020000C9474000C9474000C9474000C94740080
:100030000C9452020C9476000C9474000C9474008E
:100040000C9474000C9427030C9474000C947400AA
:100050000C9474000C9474000C9474000C94740050
:100060000C9474000C9474000C9474000C94740040
:100070000C9474000C9474000C9474000C945C0345
:100080000C9474000C9474000C9474000C94740020
:100090000C9474000C9474000C9474000C94740010
:1000A000AB01C101E60108022D0270019501112486
:1000B0001FBECFEFCDBFDFE3DEBF18E2A0E0B8E2A6
:1000C000EEECF7E002C005900D92AE30B107D9F723
:1000D0002AE2AEE0B8E201C01D92AC33B207E1F70C
:1000E0000E94DA020C94E5030C9400001F920F9218
:1000F0000FB60F921124CF92DF92EF92FF920F93DF
:100100001F932F933F934F935F936F937F938F939F
:100110009F93AF93BF93CF93DF93EF93FF93DD2430
:10012000D39410E0EE24E394F12C19C0021749F0A7
:10013000E0910E28F0910F28309719F0812F099542
:100140008881970101C0220FCA94EAF70023B1F118
:10015000822B88831F5FD394D3941831B9F1812FF8
:10016000880F0E943101082F8D2D0E943101082334
:10017000C12FC695C695C695D0E0CE5ED74D888175
:10018000912F9770C92E282F30E002C03595279502
:100190009A95E2F7217033272115310539F60217B8
:1001A00081F2E0911028F0911128309739F69701EB
:1001B00001C0220FCA94EAF70111CACF2095822309
:1001C00088831F5FD394D394183149F681E08093DC
:1001D000960AFF91EF91DF91CF91BF91AF919F91DF
:1001E0008F917F916F915F914F913F912F911F91CF
:1001F0000F91FF90EF90DF90CF900F900FBE0F9078
:100200001F9018950E941401E0E9FAE080E395E759
:100210008487958780818360808308950E942B0165
:1002200081E08093950A0895E0E4F4E09FE39183F0
:1002300082E080936204A0E8B4E088E011968C9399
:1002400011979683158216968C93E0E8F6E08281EA
:100250008B6982830895E0E8F6E080818160808385
:1002600008958F738093440488E08093850480917F
:100270008706829581700895462F50E047305105DA
:1002800030F1982F969596959695492F50E0292F05
:10029000220F220F220F281B295F81E090E001C06E
:1002A000880F2A95EAF78095FA01EA5DF74D90816B
:1002B00098239083FA01E25EF74D90819823908312
:1002C000FA01EA5EF74D9081892380830895FA014F
:1002D000E05BFF4F982F9695969596950C94DF03CB
:1002E000492F50E0990F990F990F981B995F21E0C2
:1002F00030E0B90102C0660F771F9A95E2F7CB0193
:10030000FA01EA5DF74D962F909520819223908314
:10031000FA01E25EF74D9081982B9083FA01EA5E34
:10032000F74D9081892B80830895492F50E0990FD4
:10033000990F990F981B995F21E030E0B90102C035
:10034000660F771F9A95E2F7CB01FA01EA5DF74D48
:100350009081982BDCCF492F50E0292F220F220FBC
:10036000220F281B295F81E090E001C0880F2A95A9
:10037000EAF7FA01EA5DF74D9081982B908380951A
:1003800099CF292F30E0990F990F990F981B995FFA
:1003900041E050E0BA0102C0660F771F9A95E2F77C
:1003A000CB01962F9095F901EA5DF74D40814923E5
:1003B0004083F901E25EF74D408194239083F90177
:1003C000EA5EF74D9081892B80830895492F50E094
:1003D000292F220F220F220F281B295F81E090E096
:1003E00001C0880F2A95EAF7FA01EA5DF74D90817E
:1003F000982B9083FA01E25EF74D9081982B9083C1
:10040000FA01EA5EF74D80959081892380830895F3
:10041000292F30E0990F990F990F981B995F41E0B0
:1004200050E0BA0102C0660F771F9A95E2F7CB0140
:10043000962F9095F901EA5DF74D4081492340835D
:10044000F901E25EF74D4081842B8083F901EA5E79
:10045000F74D8081982390830895492F50E0990F9C
:10046000990F990F981B995F21E030E0B90102C004
:10047000660F771F9A95E2F7CB01FA01EA5DF74D17
:100480009081982B9083FA01E25EF74D982F90951A
:10049000208192239083FA01EA5EF74D9081892BA7
:1004A000808308951F920F920FB60F9211242F93FD
:1004B0003F938F939F93EF93FF93F8949091152818
:1004C000992309F445C0913009F43FC0E6E1F8E210
:1004D0009F01285F3F4F8091C30885FFFCCF81912A
:1004E0008093C4082E173F07B1F787E080938604F6
:1004F00080E200008150E9F780E880930604809351
:10050000050480E200008150E9F721E030E0092E87
:1005100001C0220F0A94EAF720938504923010F468
:1005200081E0890F809315288091860A81608093ED
:10053000860A7894FF91EF919F918F913F912F912F
:100540000F900FBE0F901F901895EEE1F8E2C0CF0C
:10055000E6E2F8E2BDCF80ED80930104E0E8F4E04C
:1005600087E081838683E0ECF8E08081806380838C
:1005700081818068818380818160808385E0809330
:10058000000AE0E8FAE080E29EE4848795878081B3
:10059000856080830895E0E8FAE085818160858345
:1005A0000895873108F00895880F8E5E0C943C0101
:1005B000089508950E94FF020E9491030E94AB02D9
:1005C0000E940201789489ED92E080931028909324
:1005D000112888ED92E080930E2890930F2881E0F7
:1005E0000E94C9030E94CB020E940E01C3E064E096
:1005F0008C2F0E94D102CC5FCB31C9F7FFCF88EDA1
:1006000084BF1092610084BFE0E1F1E080818160ED
:100610008083789408959091040895FFFCCF80938F
:1006200002080895CF93C82F8A3039F08C2F0E948A
:100630000B0380E090E0CF9108958DE00E940B03C2
:100640008C2F0E940B0380E090E0CF9108951F92C1
:100650000F920FB60F9211242F938F939F93EF93C6
:10066000FF9380910008E0912D29F0912E2980833D
:10067000E0912D29F0912E29CF01019680932D290B
:1006800090932E298D52994291F09FB7F8948091C2
:1006900031298F5F809331299FBFFF91EF919F9107
:1006A0008F912F910F900FBE0F901F9018958EE293
:1006B00098E281839283E9CF1F920F920FB60F9237
:1006C00011242F938F939F93EF93FF938091400872
:1006D000E091312AF091322A8083E091312AF09121
:1006E000322ACF0101968093312A9093322A815386
:1006F0009A4291F09FB7F8948091352A8F5F80934A
:10070000352A9FBFFF91EF919F918F912F910F906D
:100710000FBE0F901F90189582E399E28183928318
:10072000E9CFE0EAF4E091E0918382E08283E0E0C7
:10073000F4E091838283E0E4F8E080E09AE080874F
:10074000918783E08783E0E0F8E023E238E02087C8
:10075000318787832FB7F89482E399E28093312A17
:100760009093322A8093332A9093342A1092352A18
:100770002FBF2FB7F8948EE298E280932D299093A3
:100780002E2980932F2990933029109231292FBF41
:100790000895882369F080EC8093060880E88093B0
:1007A000050880E098E28093382A9093392A0895CA
:1007B00080EC8093460880E8809345080895EE0F0A
:0E07C000FF1F0590F491E02D0994F894FFCFEF
:0E07CE00000000020000000012030000000006
:00000001FF
